{
  "contractName": "Cryptopunks",
  "abi": [
    {
      "inputs": [],
      "stateMutability": "nonpayable",
      "type": "constructor"
    },
    {
      "anonymous": false,
      "inputs": [
        {
          "indexed": true,
          "internalType": "address",
          "name": "owner",
          "type": "address"
        },
        {
          "indexed": true,
          "internalType": "address",
          "name": "approved",
          "type": "address"
        },
        {
          "indexed": true,
          "internalType": "uint256",
          "name": "tokenId",
          "type": "uint256"
        }
      ],
      "name": "Approval",
      "type": "event"
    },
    {
      "anonymous": false,
      "inputs": [
        {
          "indexed": true,
          "internalType": "address",
          "name": "owner",
          "type": "address"
        },
        {
          "indexed": true,
          "internalType": "address",
          "name": "operator",
          "type": "address"
        },
        {
          "indexed": false,
          "internalType": "bool",
          "name": "approved",
          "type": "bool"
        }
      ],
      "name": "ApprovalForAll",
      "type": "event"
    },
    {
      "anonymous": false,
      "inputs": [
        {
          "indexed": true,
          "internalType": "address",
          "name": "from",
          "type": "address"
        },
        {
          "indexed": true,
          "internalType": "address",
          "name": "to",
          "type": "address"
        },
        {
          "indexed": true,
          "internalType": "uint256",
          "name": "tokenId",
          "type": "uint256"
        }
      ],
      "name": "Transfer",
      "type": "event"
    },
    {
      "inputs": [
        {
          "internalType": "address",
          "name": "to",
          "type": "address"
        },
        {
          "internalType": "uint256",
          "name": "tokenId",
          "type": "uint256"
        }
      ],
      "name": "approve",
      "outputs": [],
      "stateMutability": "nonpayable",
      "type": "function"
    },
    {
      "inputs": [
        {
          "internalType": "address",
          "name": "owner",
          "type": "address"
        }
      ],
      "name": "balanceOf",
      "outputs": [
        {
          "internalType": "uint256",
          "name": "",
          "type": "uint256"
        }
      ],
      "stateMutability": "view",
      "type": "function",
      "constant": true
    },
    {
      "inputs": [
        {
          "internalType": "uint256",
          "name": "tokenId",
          "type": "uint256"
        }
      ],
      "name": "getApproved",
      "outputs": [
        {
          "internalType": "address",
          "name": "",
          "type": "address"
        }
      ],
      "stateMutability": "view",
      "type": "function",
      "constant": true
    },
    {
      "inputs": [
        {
          "internalType": "address",
          "name": "owner",
          "type": "address"
        },
        {
          "internalType": "address",
          "name": "operator",
          "type": "address"
        }
      ],
      "name": "isApprovedForAll",
      "outputs": [
        {
          "internalType": "bool",
          "name": "",
          "type": "bool"
        }
      ],
      "stateMutability": "view",
      "type": "function",
      "constant": true
    },
    {
      "inputs": [],
      "name": "name",
      "outputs": [
        {
          "internalType": "string",
          "name": "",
          "type": "string"
        }
      ],
      "stateMutability": "view",
      "type": "function",
      "constant": true
    },
    {
      "inputs": [
        {
          "internalType": "uint256",
          "name": "tokenId",
          "type": "uint256"
        }
      ],
      "name": "ownerOf",
      "outputs": [
        {
          "internalType": "address",
          "name": "",
          "type": "address"
        }
      ],
      "stateMutability": "view",
      "type": "function",
      "constant": true
    },
    {
      "inputs": [
        {
          "internalType": "address",
          "name": "from",
          "type": "address"
        },
        {
          "internalType": "address",
          "name": "to",
          "type": "address"
        },
        {
          "internalType": "uint256",
          "name": "tokenId",
          "type": "uint256"
        }
      ],
      "name": "safeTransferFrom",
      "outputs": [],
      "stateMutability": "nonpayable",
      "type": "function"
    },
    {
      "inputs": [
        {
          "internalType": "address",
          "name": "from",
          "type": "address"
        },
        {
          "internalType": "address",
          "name": "to",
          "type": "address"
        },
        {
          "internalType": "uint256",
          "name": "tokenId",
          "type": "uint256"
        },
        {
          "internalType": "bytes",
          "name": "_data",
          "type": "bytes"
        }
      ],
      "name": "safeTransferFrom",
      "outputs": [],
      "stateMutability": "nonpayable",
      "type": "function"
    },
    {
      "inputs": [
        {
          "internalType": "address",
          "name": "operator",
          "type": "address"
        },
        {
          "internalType": "bool",
          "name": "approved",
          "type": "bool"
        }
      ],
      "name": "setApprovalForAll",
      "outputs": [],
      "stateMutability": "nonpayable",
      "type": "function"
    },
    {
      "inputs": [
        {
          "internalType": "bytes4",
          "name": "interfaceId",
          "type": "bytes4"
        }
      ],
      "name": "supportsInterface",
      "outputs": [
        {
          "internalType": "bool",
          "name": "",
          "type": "bool"
        }
      ],
      "stateMutability": "view",
      "type": "function",
      "constant": true
    },
    {
      "inputs": [],
      "name": "symbol",
      "outputs": [
        {
          "internalType": "string",
          "name": "",
          "type": "string"
        }
      ],
      "stateMutability": "view",
      "type": "function",
      "constant": true
    },
    {
      "inputs": [
        {
          "internalType": "address",
          "name": "from",
          "type": "address"
        },
        {
          "internalType": "address",
          "name": "to",
          "type": "address"
        },
        {
          "internalType": "uint256",
          "name": "tokenId",
          "type": "uint256"
        }
      ],
      "name": "transferFrom",
      "outputs": [],
      "stateMutability": "nonpayable",
      "type": "function"
    },
    {
      "inputs": [
        {
          "internalType": "uint256",
          "name": "tokenId",
          "type": "uint256"
        }
      ],
      "name": "tokenURI",
      "outputs": [
        {
          "internalType": "string",
          "name": "",
          "type": "string"
        }
      ],
      "stateMutability": "view",
      "type": "function",
      "constant": true
    },
    {
      "inputs": [
        {
          "internalType": "string",
          "name": "_tokenURI",
          "type": "string"
        }
      ],
      "name": "Claim",
      "outputs": [
        {
          "internalType": "uint256",
          "name": "",
          "type": "uint256"
        }
      ],
      "stateMutability": "nonpayable",
      "type": "function"
    },
    {
      "inputs": [
        {
          "internalType": "string",
          "name": "_tokenURI",
          "type": "string"
        }
      ],
      "name": "getExists",
      "outputs": [
        {
          "internalType": "bool",
          "name": "",
          "type": "bool"
        }
      ],
      "stateMutability": "view",
      "type": "function",
      "constant": true
    }
  ],
  "bytecode": "0x60806040523480156200001157600080fd5b506040518060400160405280600b81526020017f43727970746f50756e6b730000000000000000000000000000000000000000008152506040518060400160405280600481526020017f50554e4b00000000000000000000000000000000000000000000000000000000815250816000908051906020019062000096929190620000b8565b508060019080519060200190620000af929190620000b8565b505050620001cd565b828054620000c69062000197565b90600052602060002090601f016020900481019282620000ea576000855562000136565b82601f106200010557805160ff191683800117855562000136565b8280016001018555821562000136579182015b828111156200013557825182559160200191906001019062000118565b5b50905062000145919062000149565b5090565b5b80821115620001645760008160009055506001016200014a565b5090565b7f4e487b7100000000000000000000000000000000000000000000000000000000600052602260045260246000fd5b60006002820490506001821680620001b057607f821691505b60208210811415620001c757620001c662000168565b5b50919050565b612d1080620001dd6000396000f3fe608060405234801561001057600080fd5b50600436106100f55760003560e01c80636352211e11610097578063b88d4fde11610066578063b88d4fde14610296578063bf5c06da146102b2578063c87b56dd146102e2578063e985e9c514610312576100f5565b80636352211e146101fc57806370a082311461022c57806395d89b411461025c578063a22cb4651461027a576100f5565b8063095ea7b3116100d3578063095ea7b3146101785780631b4966671461019457806323b872dd146101c457806342842e0e146101e0576100f5565b806301ffc9a7146100fa57806306fdde031461012a578063081812fc14610148575b600080fd5b610114600480360381019061010f9190611a6e565b610342565b6040516101219190611ab6565b60405180910390f35b610132610424565b60405161013f9190611b6a565b60405180910390f35b610162600480360381019061015d9190611bc2565b6104b6565b60405161016f9190611c30565b60405180910390f35b610192600480360381019061018d9190611c77565b61053b565b005b6101ae60048036038101906101a99190611dec565b610653565b6040516101bb9190611ab6565b60405180910390f35b6101de60048036038101906101d99190611e35565b610688565b005b6101fa60048036038101906101f59190611e35565b6106e8565b005b61021660048036038101906102119190611bc2565b610708565b6040516102239190611c30565b60405180910390f35b61024660048036038101906102419190611e88565b6107ba565b6040516102539190611ec4565b60405180910390f35b610264610872565b6040516102719190611b6a565b60405180910390f35b610294600480360381019061028f9190611f0b565b610904565b005b6102b060048036038101906102ab9190611fec565b61091a565b005b6102cc60048036038101906102c79190611dec565b61097c565b6040516102d99190611ec4565b60405180910390f35b6102fc60048036038101906102f79190611bc2565b610a20565b6040516103099190611b6a565b60405180910390f35b61032c6004803603810190610327919061206f565b610a32565b6040516103399190611ab6565b60405180910390f35b60007f80ac58cd000000000000000000000000000000000000000000000000000000007bffffffffffffffffffffffffffffffffffffffffffffffffffffffff1916827bffffffffffffffffffffffffffffffffffffffffffffffffffffffff1916148061040d57507f5b5e139f000000000000000000000000000000000000000000000000000000007bffffffffffffffffffffffffffffffffffffffffffffffffffffffff1916827bffffffffffffffffffffffffffffffffffffffffffffffffffffffff1916145b8061041d575061041c82610ac6565b5b9050919050565b606060008054610433906120de565b80601f016020809104026020016040519081016040528092919081815260200182805461045f906120de565b80156104ac5780601f10610481576101008083540402835291602001916104ac565b820191906000526020600020905b81548152906001019060200180831161048f57829003601f168201915b5050505050905090565b60006104c182610b30565b610500576040517f08c379a00000000000000000000000000000000000000000000000000000000081526004016104f790612182565b60405180910390fd5b6004600083815260200190815260200160002060009054906101000a900473ffffffffffffffffffffffffffffffffffffffff169050919050565b600061054682610708565b90508073ffffffffffffffffffffffffffffffffffffffff168373ffffffffffffffffffffffffffffffffffffffff1614156105b7576040517f08c379a00000000000000000000000000000000000000000000000000000000081526004016105ae90612214565b60405180910390fd5b8073ffffffffffffffffffffffffffffffffffffffff166105d6610b9c565b73ffffffffffffffffffffffffffffffffffffffff1614806106055750610604816105ff610b9c565b610a32565b5b610644576040517f08c379a000000000000000000000000000000000000000000000000000000000815260040161063b906122a6565b60405180910390fd5b61064e8383610ba4565b505050565b60006008826040516106659190612302565b908152602001604051809103902060009054906101000a900460ff169050919050565b610699610693610b9c565b82610c5d565b6106d8576040517f08c379a00000000000000000000000000000000000000000000000000000000081526004016106cf9061238b565b60405180910390fd5b6106e3838383610d3b565b505050565b6107038383836040518060200160405280600081525061091a565b505050565b6000806002600084815260200190815260200160002060009054906101000a900473ffffffffffffffffffffffffffffffffffffffff169050600073ffffffffffffffffffffffffffffffffffffffff168173ffffffffffffffffffffffffffffffffffffffff1614156107b1576040517f08c379a00000000000000000000000000000000000000000000000000000000081526004016107a89061241d565b60405180910390fd5b80915050919050565b60008073ffffffffffffffffffffffffffffffffffffffff168273ffffffffffffffffffffffffffffffffffffffff16141561082b576040517f08c379a0000000000000000000000000000000000000000000000000000000008152600401610822906124af565b60405180910390fd5b600360008373ffffffffffffffffffffffffffffffffffffffff1673ffffffffffffffffffffffffffffffffffffffff168152602001908152602001600020549050919050565b606060018054610881906120de565b80601f01602080910402602001604051908101604052809291908181526020018280546108ad906120de565b80156108fa5780601f106108cf576101008083540402835291602001916108fa565b820191906000526020600020905b8154815290600101906020018083116108dd57829003601f168201915b5050505050905090565b61091661090f610b9c565b8383610f97565b5050565b61092b610925610b9c565b83610c5d565b61096a576040517f08c379a00000000000000000000000000000000000000000000000000000000081526004016109619061238b565b60405180910390fd5b61097684848484611104565b50505050565b600060088260405161098e9190612302565b908152602001604051809103902060009054906101000a900460ff16156109b457600080fd5b6109be6007611160565b60006109ca6007611176565b90506109d63382611184565b6109e081846111a2565b60016008846040516109f29190612302565b908152602001604051809103902060006101000a81548160ff02191690831515021790555080915050919050565b6060610a2b82611216565b9050919050565b6000600560008473ffffffffffffffffffffffffffffffffffffffff1673ffffffffffffffffffffffffffffffffffffffff16815260200190815260200160002060008373ffffffffffffffffffffffffffffffffffffffff1673ffffffffffffffffffffffffffffffffffffffff16815260200190815260200160002060009054906101000a900460ff16905092915050565b60007f01ffc9a7000000000000000000000000000000000000000000000000000000007bffffffffffffffffffffffffffffffffffffffffffffffffffffffff1916827bffffffffffffffffffffffffffffffffffffffffffffffffffffffff1916149050919050565b60008073ffffffffffffffffffffffffffffffffffffffff166002600084815260200190815260200160002060009054906101000a900473ffffffffffffffffffffffffffffffffffffffff1673ffffffffffffffffffffffffffffffffffffffff1614159050919050565b600033905090565b816004600083815260200190815260200160002060006101000a81548173ffffffffffffffffffffffffffffffffffffffff021916908373ffffffffffffffffffffffffffffffffffffffff160217905550808273ffffffffffffffffffffffffffffffffffffffff16610c1783610708565b73ffffffffffffffffffffffffffffffffffffffff167f8c5be1e5ebec7d5bd14f71427d1e84f3dd0314c0f7b2291e5b200ac8c7c3b92560405160405180910390a45050565b6000610c6882610b30565b610ca7576040517f08c379a0000000000000000000000000000000000000000000000000000000008152600401610c9e90612541565b60405180910390fd5b6000610cb283610708565b90508073ffffffffffffffffffffffffffffffffffffffff168473ffffffffffffffffffffffffffffffffffffffff161480610d2157508373ffffffffffffffffffffffffffffffffffffffff16610d09846104b6565b73ffffffffffffffffffffffffffffffffffffffff16145b80610d325750610d318185610a32565b5b91505092915050565b8273ffffffffffffffffffffffffffffffffffffffff16610d5b82610708565b73ffffffffffffffffffffffffffffffffffffffff1614610db1576040517f08c379a0000000000000000000000000000000000000000000000000000000008152600401610da8906125d3565b60405180910390fd5b600073ffffffffffffffffffffffffffffffffffffffff168273ffffffffffffffffffffffffffffffffffffffff161415610e21576040517f08c379a0000000000000000000000000000000000000000000000000000000008152600401610e1890612665565b60405180910390fd5b610e2c838383611368565b610e37600082610ba4565b6001600360008573ffffffffffffffffffffffffffffffffffffffff1673ffffffffffffffffffffffffffffffffffffffff1681526020019081526020016000206000828254610e8791906126b4565b925050819055506001600360008473ffffffffffffffffffffffffffffffffffffffff1673ffffffffffffffffffffffffffffffffffffffff1681526020019081526020016000206000828254610ede91906126e8565b92505081905550816002600083815260200190815260200160002060006101000a81548173ffffffffffffffffffffffffffffffffffffffff021916908373ffffffffffffffffffffffffffffffffffffffff160217905550808273ffffffffffffffffffffffffffffffffffffffff168473ffffffffffffffffffffffffffffffffffffffff167fddf252ad1be2c89b69c2b068fc378daa952ba7f163c4a11628f55a4df523b3ef60405160405180910390a4505050565b8173ffffffffffffffffffffffffffffffffffffffff168373ffffffffffffffffffffffffffffffffffffffff161415611006576040517f08c379a0000000000000000000000000000000000000000000000000000000008152600401610ffd9061278a565b60405180910390fd5b80600560008573ffffffffffffffffffffffffffffffffffffffff1673ffffffffffffffffffffffffffffffffffffffff16815260200190815260200160002060008473ffffffffffffffffffffffffffffffffffffffff1673ffffffffffffffffffffffffffffffffffffffff16815260200190815260200160002060006101000a81548160ff0219169083151502179055508173ffffffffffffffffffffffffffffffffffffffff168373ffffffffffffffffffffffffffffffffffffffff167f17307eab39ab6107e8899845ad3d59bd9653f200f220920489ca2b5937696c31836040516110f79190611ab6565b60405180910390a3505050565b61110f848484610d3b565b61111b8484848461136d565b61115a576040517f08c379a00000000000000000000000000000000000000000000000000000000081526004016111519061281c565b60405180910390fd5b50505050565b6001816000016000828254019250508190555050565b600081600001549050919050565b61119e828260405180602001604052806000815250611504565b5050565b6111ab82610b30565b6111ea576040517f08c379a00000000000000000000000000000000000000000000000000000000081526004016111e1906128ae565b60405180910390fd5b8060066000848152602001908152602001600020908051906020019061121192919061195f565b505050565b606061122182610b30565b611260576040517f08c379a000000000000000000000000000000000000000000000000000000000815260040161125790612940565b60405180910390fd5b6000600660008481526020019081526020016000208054611280906120de565b80601f01602080910402602001604051908101604052809291908181526020018280546112ac906120de565b80156112f95780601f106112ce576101008083540402835291602001916112f9565b820191906000526020600020905b8154815290600101906020018083116112dc57829003601f168201915b50505050509050600061130a61155f565b9050600081511415611320578192505050611363565b60008251111561135557808260405160200161133d929190612960565b60405160208183030381529060405292505050611363565b61135e84611576565b925050505b919050565b505050565b600061138e8473ffffffffffffffffffffffffffffffffffffffff1661161d565b156114f7578373ffffffffffffffffffffffffffffffffffffffff1663150b7a026113b7610b9c565b8786866040518563ffffffff1660e01b81526004016113d994939291906129d9565b602060405180830381600087803b1580156113f357600080fd5b505af192505050801561142457506040513d601f19601f820116820180604052508101906114219190612a3a565b60015b6114a7573d8060008114611454576040519150601f19603f3d011682016040523d82523d6000602084013e611459565b606091505b5060008151141561149f576040517f08c379a00000000000000000000000000000000000000000000000000000000081526004016114969061281c565b60405180910390fd5b805181602001fd5b63150b7a0260e01b7bffffffffffffffffffffffffffffffffffffffffffffffffffffffff1916817bffffffffffffffffffffffffffffffffffffffffffffffffffffffff1916149150506114fc565b600190505b949350505050565b61150e8383611630565b61151b600084848461136d565b61155a576040517f08c379a00000000000000000000000000000000000000000000000000000000081526004016115519061281c565b60405180910390fd5b505050565b606060405180602001604052806000815250905090565b606061158182610b30565b6115c0576040517f08c379a00000000000000000000000000000000000000000000000000000000081526004016115b790612ad9565b60405180910390fd5b60006115ca61155f565b905060008151116115ea5760405180602001604052806000815250611615565b806115f4846117fe565b604051602001611605929190612960565b6040516020818303038152906040525b915050919050565b600080823b905060008111915050919050565b600073ffffffffffffffffffffffffffffffffffffffff168273ffffffffffffffffffffffffffffffffffffffff1614156116a0576040517f08c379a000000000000000000000000000000000000000000000000000000000815260040161169790612b45565b60405180910390fd5b6116a981610b30565b156116e9576040517f08c379a00000000000000000000000000000000000000000000000000000000081526004016116e090612bb1565b60405180910390fd5b6116f560008383611368565b6001600360008473ffffffffffffffffffffffffffffffffffffffff1673ffffffffffffffffffffffffffffffffffffffff168152602001908152602001600020600082825461174591906126e8565b92505081905550816002600083815260200190815260200160002060006101000a81548173ffffffffffffffffffffffffffffffffffffffff021916908373ffffffffffffffffffffffffffffffffffffffff160217905550808273ffffffffffffffffffffffffffffffffffffffff16600073ffffffffffffffffffffffffffffffffffffffff167fddf252ad1be2c89b69c2b068fc378daa952ba7f163c4a11628f55a4df523b3ef60405160405180910390a45050565b60606000821415611846576040518060400160405280600181526020017f3000000000000000000000000000000000000000000000000000000000000000815250905061195a565b600082905060005b6000821461187857808061186190612bd1565b915050600a826118719190612c49565b915061184e565b60008167ffffffffffffffff81111561189457611893611cc1565b5b6040519080825280601f01601f1916602001820160405280156118c65781602001600182028036833780820191505090505b5090505b60008514611953576001826118df91906126b4565b9150600a856118ee9190612c7a565b60306118fa91906126e8565b60f81b8183815181106119105761190f612cab565b5b60200101907effffffffffffffffffffffffffffffffffffffffffffffffffffffffffffff1916908160001a905350600a8561194c9190612c49565b94506118ca565b8093505050505b919050565b82805461196b906120de565b90600052602060002090601f01602090048101928261198d57600085556119d4565b82601f106119a657805160ff19168380011785556119d4565b828001600101855582156119d4579182015b828111156119d35782518255916020019190600101906119b8565b5b5090506119e191906119e5565b5090565b5b808211156119fe5760008160009055506001016119e6565b5090565b6000604051905090565b600080fd5b600080fd5b60007fffffffff0000000000000000000000000000000000000000000000000000000082169050919050565b611a4b81611a16565b8114611a5657600080fd5b50565b600081359050611a6881611a42565b92915050565b600060208284031215611a8457611a83611a0c565b5b6000611a9284828501611a59565b91505092915050565b60008115159050919050565b611ab081611a9b565b82525050565b6000602082019050611acb6000830184611aa7565b92915050565b600081519050919050565b600082825260208201905092915050565b60005b83811015611b0b578082015181840152602081019050611af0565b83811115611b1a576000848401525b50505050565b6000601f19601f8301169050919050565b6000611b3c82611ad1565b611b468185611adc565b9350611b56818560208601611aed565b611b5f81611b20565b840191505092915050565b60006020820190508181036000830152611b848184611b31565b905092915050565b6000819050919050565b611b9f81611b8c565b8114611baa57600080fd5b50565b600081359050611bbc81611b96565b92915050565b600060208284031215611bd857611bd7611a0c565b5b6000611be684828501611bad565b91505092915050565b600073ffffffffffffffffffffffffffffffffffffffff82169050919050565b6000611c1a82611bef565b9050919050565b611c2a81611c0f565b82525050565b6000602082019050611c456000830184611c21565b92915050565b611c5481611c0f565b8114611c5f57600080fd5b50565b600081359050611c7181611c4b565b92915050565b60008060408385031215611c8e57611c8d611a0c565b5b6000611c9c85828601611c62565b9250506020611cad85828601611bad565b9150509250929050565b600080fd5b600080fd5b7f4e487b7100000000000000000000000000000000000000000000000000000000600052604160045260246000fd5b611cf982611b20565b810181811067ffffffffffffffff82111715611d1857611d17611cc1565b5b80604052505050565b6000611d2b611a02565b9050611d378282611cf0565b919050565b600067ffffffffffffffff821115611d5757611d56611cc1565b5b611d6082611b20565b9050602081019050919050565b82818337600083830152505050565b6000611d8f611d8a84611d3c565b611d21565b905082815260208101848484011115611dab57611daa611cbc565b5b611db6848285611d6d565b509392505050565b600082601f830112611dd357611dd2611cb7565b5b8135611de3848260208601611d7c565b91505092915050565b600060208284031215611e0257611e01611a0c565b5b600082013567ffffffffffffffff811115611e2057611e1f611a11565b5b611e2c84828501611dbe565b91505092915050565b600080600060608486031215611e4e57611e4d611a0c565b5b6000611e5c86828701611c62565b9350506020611e6d86828701611c62565b9250506040611e7e86828701611bad565b9150509250925092565b600060208284031215611e9e57611e9d611a0c565b5b6000611eac84828501611c62565b91505092915050565b611ebe81611b8c565b82525050565b6000602082019050611ed96000830184611eb5565b92915050565b611ee881611a9b565b8114611ef357600080fd5b50565b600081359050611f0581611edf565b92915050565b60008060408385031215611f2257611f21611a0c565b5b6000611f3085828601611c62565b9250506020611f4185828601611ef6565b9150509250929050565b600067ffffffffffffffff821115611f6657611f65611cc1565b5b611f6f82611b20565b9050602081019050919050565b6000611f8f611f8a84611f4b565b611d21565b905082815260208101848484011115611fab57611faa611cbc565b5b611fb6848285611d6d565b509392505050565b600082601f830112611fd357611fd2611cb7565b5b8135611fe3848260208601611f7c565b91505092915050565b6000806000806080858703121561200657612005611a0c565b5b600061201487828801611c62565b945050602061202587828801611c62565b935050604061203687828801611bad565b925050606085013567ffffffffffffffff81111561205757612056611a11565b5b61206387828801611fbe565b91505092959194509250565b6000806040838503121561208657612085611a0c565b5b600061209485828601611c62565b92505060206120a585828601611c62565b9150509250929050565b7f4e487b7100000000000000000000000000000000000000000000000000000000600052602260045260246000fd5b600060028204905060018216806120f657607f821691505b6020821081141561210a576121096120af565b5b50919050565b7f4552433732313a20617070726f76656420717565727920666f72206e6f6e657860008201527f697374656e7420746f6b656e0000000000000000000000000000000000000000602082015250565b600061216c602c83611adc565b915061217782612110565b604082019050919050565b6000602082019050818103600083015261219b8161215f565b9050919050565b7f4552433732313a20617070726f76616c20746f2063757272656e74206f776e6560008201527f7200000000000000000000000000000000000000000000000000000000000000602082015250565b60006121fe602183611adc565b9150612209826121a2565b604082019050919050565b6000602082019050818103600083015261222d816121f1565b9050919050565b7f4552433732313a20617070726f76652063616c6c6572206973206e6f74206f7760008201527f6e6572206e6f7220617070726f76656420666f7220616c6c0000000000000000602082015250565b6000612290603883611adc565b915061229b82612234565b604082019050919050565b600060208201905081810360008301526122bf81612283565b9050919050565b600081905092915050565b60006122dc82611ad1565b6122e681856122c6565b93506122f6818560208601611aed565b80840191505092915050565b600061230e82846122d1565b915081905092915050565b7f4552433732313a207472616e736665722063616c6c6572206973206e6f74206f60008201527f776e6572206e6f7220617070726f766564000000000000000000000000000000602082015250565b6000612375603183611adc565b915061238082612319565b604082019050919050565b600060208201905081810360008301526123a481612368565b9050919050565b7f4552433732313a206f776e657220717565727920666f72206e6f6e657869737460008201527f656e7420746f6b656e0000000000000000000000000000000000000000000000602082015250565b6000612407602983611adc565b9150612412826123ab565b604082019050919050565b60006020820190508181036000830152612436816123fa565b9050919050565b7f4552433732313a2062616c616e636520717565727920666f7220746865207a6560008201527f726f206164647265737300000000000000000000000000000000000000000000602082015250565b6000612499602a83611adc565b91506124a48261243d565b604082019050919050565b600060208201905081810360008301526124c88161248c565b9050919050565b7f4552433732313a206f70657261746f7220717565727920666f72206e6f6e657860008201527f697374656e7420746f6b656e0000000000000000000000000000000000000000602082015250565b600061252b602c83611adc565b9150612536826124cf565b604082019050919050565b6000602082019050818103600083015261255a8161251e565b9050919050565b7f4552433732313a207472616e73666572206f6620746f6b656e2074686174206960008201527f73206e6f74206f776e0000000000000000000000000000000000000000000000602082015250565b60006125bd602983611adc565b91506125c882612561565b604082019050919050565b600060208201905081810360008301526125ec816125b0565b9050919050565b7f4552433732313a207472616e7366657220746f20746865207a65726f2061646460008201527f7265737300000000000000000000000000000000000000000000000000000000602082015250565b600061264f602483611adc565b915061265a826125f3565b604082019050919050565b6000602082019050818103600083015261267e81612642565b9050919050565b7f4e487b7100000000000000000000000000000000000000000000000000000000600052601160045260246000fd5b60006126bf82611b8c565b91506126ca83611b8c565b9250828210156126dd576126dc612685565b5b828203905092915050565b60006126f382611b8c565b91506126fe83611b8c565b9250827fffffffffffffffffffffffffffffffffffffffffffffffffffffffffffffffff0382111561273357612732612685565b5b828201905092915050565b7f4552433732313a20617070726f766520746f2063616c6c657200000000000000600082015250565b6000612774601983611adc565b915061277f8261273e565b602082019050919050565b600060208201905081810360008301526127a381612767565b9050919050565b7f4552433732313a207472616e7366657220746f206e6f6e20455243373231526560008201527f63656976657220696d706c656d656e7465720000000000000000000000000000602082015250565b6000612806603283611adc565b9150612811826127aa565b604082019050919050565b60006020820190508181036000830152612835816127f9565b9050919050565b7f45524337323155524953746f726167653a2055524920736574206f66206e6f6e60008201527f6578697374656e7420746f6b656e000000000000000000000000000000000000602082015250565b6000612898602e83611adc565b91506128a38261283c565b604082019050919050565b600060208201905081810360008301526128c78161288b565b9050919050565b7f45524337323155524953746f726167653a2055524920717565727920666f722060008201527f6e6f6e6578697374656e7420746f6b656e000000000000000000000000000000602082015250565b600061292a603183611adc565b9150612935826128ce565b604082019050919050565b600060208201905081810360008301526129598161291d565b9050919050565b600061296c82856122d1565b915061297882846122d1565b91508190509392505050565b600081519050919050565b600082825260208201905092915050565b60006129ab82612984565b6129b5818561298f565b93506129c5818560208601611aed565b6129ce81611b20565b840191505092915050565b60006080820190506129ee6000830187611c21565b6129fb6020830186611c21565b612a086040830185611eb5565b8181036060830152612a1a81846129a0565b905095945050505050565b600081519050612a3481611a42565b92915050565b600060208284031215612a5057612a4f611a0c565b5b6000612a5e84828501612a25565b91505092915050565b7f4552433732314d657461646174613a2055524920717565727920666f72206e6f60008201527f6e6578697374656e7420746f6b656e0000000000000000000000000000000000602082015250565b6000612ac3602f83611adc565b9150612ace82612a67565b604082019050919050565b60006020820190508181036000830152612af281612ab6565b9050919050565b7f4552433732313a206d696e7420746f20746865207a65726f2061646472657373600082015250565b6000612b2f602083611adc565b9150612b3a82612af9565b602082019050919050565b60006020820190508181036000830152612b5e81612b22565b9050919050565b7f4552433732313a20746f6b656e20616c7265616479206d696e74656400000000600082015250565b6000612b9b601c83611adc565b9150612ba682612b65565b602082019050919050565b60006020820190508181036000830152612bca81612b8e565b9050919050565b6000612bdc82611b8c565b91507fffffffffffffffffffffffffffffffffffffffffffffffffffffffffffffffff821415612c0f57612c0e612685565b5b600182019050919050565b7f4e487b7100000000000000000000000000000000000000000000000000000000600052601260045260246000fd5b6000612c5482611b8c565b9150612c5f83611b8c565b925082612c6f57612c6e612c1a565b5b828204905092915050565b6000612c8582611b8c565b9150612c9083611b8c565b925082612ca057612c9f612c1a565b5b828206905092915050565b7f4e487b7100000000000000000000000000000000000000000000000000000000600052603260045260246000fdfea2646970667358221220990252dcbaed9c61d0e5fc4d39ad1903e47bdce7e219c17857d56542980f738564736f6c63430008090033",
  "immutableReferences": {},
  "source": "// contracts/Cryptopunks.sol\n// SPDX-License-Identifier: MIT\npragma solidity >=0.4.22 <0.9.0;\n\nimport \"@openzeppelin/contracts/token/ERC721/ERC721.sol\";\nimport \"@openzeppelin/contracts/token/ERC721/extensions/ERC721URIStorage.sol\";\nimport \"@openzeppelin/contracts/utils/Counters.sol\";\n\ncontract Cryptopunks is ERC721, ERC721URIStorage {\n    using Counters for Counters.Counter;\n    Counters.Counter private _tokenIds;\n    mapping(string => bool) _avatarExists;\n\n    constructor() ERC721(\"CryptoPunks\", \"PUNK\") {}\n\n    function _burn(uint256 tokenId) internal override(ERC721, ERC721URIStorage) {\n        super._burn(tokenId);\n    }\n\n    function tokenURI(uint256 tokenId)\n        public\n        view\n        override(ERC721, ERC721URIStorage)\n        returns (string memory)\n    {\n        return super.tokenURI(tokenId);\n    }\n\n    function Claim(string memory _tokenURI) public returns (uint256) {\n        require(!_avatarExists[_tokenURI]);\n\n        _tokenIds.increment();\n\n        uint256 newItemId = _tokenIds.current();\n        _safeMint(msg.sender, newItemId);\n        _setTokenURI(newItemId, _tokenURI);\n        _avatarExists[_tokenURI] = true;\n\n        return newItemId;\n    }\n\n    function getExists(string memory _tokenURI) public view returns (bool) {\n        return _avatarExists[_tokenURI];\n    }\n\n}",
  "sourcePath": "/Users/enjoyjww/cryptopunkstest/contracts/Cryptopunks.sol",
  "compiler": {
    "name": "solc",
    "version": "0.8.9+commit.e5eed63a.Emscripten.clang"
  },
  "schemaVersion": "3.4.3",
  "updatedAt": "2022-01-02T14:11:32.201Z",
  "networkType": "ethereum",
  "devdoc": {
    "kind": "dev",
    "methods": {
      "approve(address,uint256)": {
        "details": "See {IERC721-approve}."
      },
      "balanceOf(address)": {
        "details": "See {IERC721-balanceOf}."
      },
      "getApproved(uint256)": {
        "details": "See {IERC721-getApproved}."
      },
      "isApprovedForAll(address,address)": {
        "details": "See {IERC721-isApprovedForAll}."
      },
      "name()": {
        "details": "See {IERC721Metadata-name}."
      },
      "ownerOf(uint256)": {
        "details": "See {IERC721-ownerOf}."
      },
      "safeTransferFrom(address,address,uint256)": {
        "details": "See {IERC721-safeTransferFrom}."
      },
      "safeTransferFrom(address,address,uint256,bytes)": {
        "details": "See {IERC721-safeTransferFrom}."
      },
      "setApprovalForAll(address,bool)": {
        "details": "See {IERC721-setApprovalForAll}."
      },
      "supportsInterface(bytes4)": {
        "details": "See {IERC165-supportsInterface}."
      },
      "symbol()": {
        "details": "See {IERC721Metadata-symbol}."
      },
      "transferFrom(address,address,uint256)": {
        "details": "See {IERC721-transferFrom}."
      }
    },
    "version": 1
  },
  "userdoc": {
    "kind": "user",
    "methods": {},
    "version": 1
  }
}